{
  "_format": "hh-sol-artifact-1",
  "contractName": "TokenFaucet",
  "sourceName": "contracts/TokenFaucet.sol",
  "abi": [
    {
      "inputs": [
        {
          "internalType": "address",
          "name": "_tokenAddress",
          "type": "address"
        }
      ],
      "stateMutability": "nonpayable",
      "type": "constructor"
    },
    {
      "anonymous": false,
      "inputs": [
        {
          "indexed": false,
          "internalType": "bool",
          "name": "paused",
          "type": "bool"
        }
      ],
      "name": "FaucetPaused",
      "type": "event"
    },
    {
      "anonymous": false,
      "inputs": [
        {
          "indexed": true,
          "internalType": "address",
          "name": "user",
          "type": "address"
        },
        {
          "indexed": false,
          "internalType": "uint256",
          "name": "amount",
          "type": "uint256"
        },
        {
          "indexed": false,
          "internalType": "uint256",
          "name": "timestamp",
          "type": "uint256"
        }
      ],
      "name": "TokensClaimed",
      "type": "event"
    },
    {
      "inputs": [],
      "name": "COOLDOWN_TIME",
      "outputs": [
        {
          "internalType": "uint256",
          "name": "",
          "type": "uint256"
        }
      ],
      "stateMutability": "view",
      "type": "function"
    },
    {
      "inputs": [],
      "name": "FAUCET_AMOUNT",
      "outputs": [
        {
          "internalType": "uint256",
          "name": "",
          "type": "uint256"
        }
      ],
      "stateMutability": "view",
      "type": "function"
    },
    {
      "inputs": [],
      "name": "MAX_CLAIM_AMOUNT",
      "outputs": [
        {
          "internalType": "uint256",
          "name": "",
          "type": "uint256"
        }
      ],
      "stateMutability": "view",
      "type": "function"
    },
    {
      "inputs": [],
      "name": "admin",
      "outputs": [
        {
          "internalType": "address",
          "name": "",
          "type": "address"
        }
      ],
      "stateMutability": "view",
      "type": "function"
    },
    {
      "inputs": [
        {
          "internalType": "address",
          "name": "user",
          "type": "address"
        }
      ],
      "name": "canClaim",
      "outputs": [
        {
          "internalType": "bool",
          "name": "",
          "type": "bool"
        }
      ],
      "stateMutability": "view",
      "type": "function"
    },
    {
      "inputs": [],
      "name": "isPaused",
      "outputs": [
        {
          "internalType": "bool",
          "name": "",
          "type": "bool"
        }
      ],
      "stateMutability": "view",
      "type": "function"
    },
    {
      "inputs": [
        {
          "internalType": "address",
          "name": "",
          "type": "address"
        }
      ],
      "name": "lastClaimAt",
      "outputs": [
        {
          "internalType": "uint256",
          "name": "",
          "type": "uint256"
        }
      ],
      "stateMutability": "view",
      "type": "function"
    },
    {
      "inputs": [
        {
          "internalType": "address",
          "name": "user",
          "type": "address"
        }
      ],
      "name": "remainingAllowance",
      "outputs": [
        {
          "internalType": "uint256",
          "name": "",
          "type": "uint256"
        }
      ],
      "stateMutability": "view",
      "type": "function"
    },
    {
      "inputs": [],
      "name": "requestTokens",
      "outputs": [],
      "stateMutability": "nonpayable",
      "type": "function"
    },
    {
      "inputs": [
        {
          "internalType": "bool",
          "name": "_paused",
          "type": "bool"
        }
      ],
      "name": "setPaused",
      "outputs": [],
      "stateMutability": "nonpayable",
      "type": "function"
    },
    {
      "inputs": [],
      "name": "token",
      "outputs": [
        {
          "internalType": "contract IToken",
          "name": "",
          "type": "address"
        }
      ],
      "stateMutability": "view",
      "type": "function"
    },
    {
      "inputs": [
        {
          "internalType": "address",
          "name": "",
          "type": "address"
        }
      ],
      "name": "totalClaimed",
      "outputs": [
        {
          "internalType": "uint256",
          "name": "",
          "type": "uint256"
        }
      ],
      "stateMutability": "view",
      "type": "function"
    }
  ],
  "bytecode": "0x608060405234801561001057600080fd5b50604051610e66380380610e6683398181016040528101906100329190610137565b806000806101000a81548173ffffffffffffffffffffffffffffffffffffffff021916908373ffffffffffffffffffffffffffffffffffffffff16021790555033600160006101000a81548173ffffffffffffffffffffffffffffffffffffffff021916908373ffffffffffffffffffffffffffffffffffffffff1602179055506000600160146101000a81548160ff02191690831515021790555050610164565b600080fd5b600073ffffffffffffffffffffffffffffffffffffffff82169050919050565b6000610104826100d9565b9050919050565b610114816100f9565b811461011f57600080fd5b50565b6000815190506101318161010b565b92915050565b60006020828403121561014d5761014c6100d4565b5b600061015b84828501610122565b91505092915050565b610cf3806101736000396000f3fe608060405234801561001057600080fd5b50600436106100b45760003560e01c8063bf3506c111610071578063bf3506c114610169578063e362b4f714610199578063ef5d9ae8146101b7578063f357df6d146101e7578063f851a44014610217578063fc0c546a14610235576100b4565b806303822d3b146100b957806316c38b3c146100e9578063359cf2b714610105578063766976401461010f5780637d2632451461012d578063b187bd261461014b575b600080fd5b6100d360048036038101906100ce9190610859565b610253565b6040516100e0919061089f565b60405180910390f35b61010360048036038101906100fe91906108f2565b61026b565b005b61010d61034f565b005b6101176105cb565b604051610124919061089f565b60405180910390f35b6101356105d7565b604051610142919061089f565b60405180910390f35b6101536105de565b604051610160919061092e565b60405180910390f35b610183600480360381019061017e9190610859565b6105f1565b604051610190919061092e565b60405180910390f35b6101a16106d1565b6040516101ae919061089f565b60405180910390f35b6101d160048036038101906101cc9190610859565b6106de565b6040516101de919061089f565b60405180910390f35b61020160048036038101906101fc9190610859565b6106f6565b60405161020e919061089f565b60405180910390f35b61021f6107ac565b60405161022c9190610958565b60405180910390f35b61023d6107d2565b60405161024a91906109d2565b60405180910390f35b60026020528060005260406000206000915090505481565b600160009054906101000a900473ffffffffffffffffffffffffffffffffffffffff1673ffffffffffffffffffffffffffffffffffffffff163373ffffffffffffffffffffffffffffffffffffffff16146102fb576040517f08c379a00000000000000000000000000000000000000000000000000000000081526004016102f290610a70565b60405180910390fd5b80600160146101000a81548160ff0219169083151502179055507f50cfd8deb0b293676ae69355a9eed053a00f81d3bd6a0ae4dc082629e6476f7f81604051610344919061092e565b60405180910390a150565b600160149054906101000a900460ff161561039f576040517f08c379a000000000000000000000000000000000000000000000000000000000815260040161039690610adc565b60405180910390fd5b678ac7230489e800006103b1336106f6565b10156103f2576040517f08c379a00000000000000000000000000000000000000000000000000000000081526004016103e990610b48565b60405180910390fd5b6103fb336105f1565b61043a576040517f08c379a000000000000000000000000000000000000000000000000000000000815260040161043190610bb4565b60405180910390fd5b42600260003373ffffffffffffffffffffffffffffffffffffffff1673ffffffffffffffffffffffffffffffffffffffff16815260200190815260200160002081905550678ac7230489e80000600360003373ffffffffffffffffffffffffffffffffffffffff1673ffffffffffffffffffffffffffffffffffffffff16815260200190815260200160002060008282546104d59190610c03565b9250508190555060008054906101000a900473ffffffffffffffffffffffffffffffffffffffff1673ffffffffffffffffffffffffffffffffffffffff166340c10f1933678ac7230489e800006040518363ffffffff1660e01b815260040161053f929190610c37565b600060405180830381600087803b15801561055957600080fd5b505af115801561056d573d6000803e3d6000fd5b505050503373ffffffffffffffffffffffffffffffffffffffff167f9923b4306c6c030f2bdfbf156517d5983b87e15b96176da122cd4f2effa4ba7b678ac7230489e80000426040516105c1929190610c60565b60405180910390a2565b678ac7230489e8000081565b6201518081565b600160149054906101000a900460ff1681565b6000600160149054906101000a900460ff161561061157600090506106cc565b62015180600260008473ffffffffffffffffffffffffffffffffffffffff1673ffffffffffffffffffffffffffffffffffffffff1681526020019081526020016000205461065f9190610c03565b42101561066f57600090506106cc565b6802b5e3af16b1880000600360008473ffffffffffffffffffffffffffffffffffffffff1673ffffffffffffffffffffffffffffffffffffffff16815260200190815260200160002054106106c757600090506106cc565b600190505b919050565b6802b5e3af16b188000081565b60036020528060005260406000206000915090505481565b60006802b5e3af16b1880000600360008473ffffffffffffffffffffffffffffffffffffffff1673ffffffffffffffffffffffffffffffffffffffff168152602001908152602001600020541061075057600090506107a7565b600360008373ffffffffffffffffffffffffffffffffffffffff1673ffffffffffffffffffffffffffffffffffffffff168152602001908152602001600020546802b5e3af16b18800006107a49190610c89565b90505b919050565b600160009054906101000a900473ffffffffffffffffffffffffffffffffffffffff1681565b60008054906101000a900473ffffffffffffffffffffffffffffffffffffffff1681565b600080fd5b600073ffffffffffffffffffffffffffffffffffffffff82169050919050565b6000610826826107fb565b9050919050565b6108368161081b565b811461084157600080fd5b50565b6000813590506108538161082d565b92915050565b60006020828403121561086f5761086e6107f6565b5b600061087d84828501610844565b91505092915050565b6000819050919050565b61089981610886565b82525050565b60006020820190506108b46000830184610890565b92915050565b60008115159050919050565b6108cf816108ba565b81146108da57600080fd5b50565b6000813590506108ec816108c6565b92915050565b600060208284031215610908576109076107f6565b5b6000610916848285016108dd565b91505092915050565b610928816108ba565b82525050565b6000602082019050610943600083018461091f565b92915050565b6109528161081b565b82525050565b600060208201905061096d6000830184610949565b92915050565b6000819050919050565b600061099861099361098e846107fb565b610973565b6107fb565b9050919050565b60006109aa8261097d565b9050919050565b60006109bc8261099f565b9050919050565b6109cc816109b1565b82525050565b60006020820190506109e760008301846109c3565b92915050565b600082825260208201905092915050565b7f4f6e6c792061646d696e2063616e20706572666f726d2074686973206163746960008201527f6f6e000000000000000000000000000000000000000000000000000000000000602082015250565b6000610a5a6022836109ed565b9150610a65826109fe565b604082019050919050565b60006020820190508181036000830152610a8981610a4d565b9050919050565b7f4661756365742069732070617573656400000000000000000000000000000000600082015250565b6000610ac66010836109ed565b9150610ad182610a90565b602082019050919050565b60006020820190508181036000830152610af581610ab9565b9050919050565b7f4c69666574696d65206c696d6974207265616368656400000000000000000000600082015250565b6000610b326016836109ed565b9150610b3d82610afc565b602082019050919050565b60006020820190508181036000830152610b6181610b25565b9050919050565b7f436c61696d20636f6e646974696f6e73206e6f74206d65740000000000000000600082015250565b6000610b9e6018836109ed565b9150610ba982610b68565b602082019050919050565b60006020820190508181036000830152610bcd81610b91565b9050919050565b7f4e487b7100000000000000000000000000000000000000000000000000000000600052601160045260246000fd5b6000610c0e82610886565b9150610c1983610886565b9250828201905080821115610c3157610c30610bd4565b5b92915050565b6000604082019050610c4c6000830185610949565b610c596020830184610890565b9392505050565b6000604082019050610c756000830185610890565b610c826020830184610890565b9392505050565b6000610c9482610886565b9150610c9f83610886565b9250828203905081811115610cb757610cb6610bd4565b5b9291505056fea264697066735822122063da852f573a089a25e8de18c26e8194bfbebf7668cd443fd90b93be0c25cd2464736f6c634300081c0033",
  "linkReferences": {},
  "deployedLinkReferences": {}
}